:1000000006C1000035C1000033C1000031C100004D
:100010002FC100002DC100002BC1000029C100002C
:1000200027C1000025C1000023C1000021C100003C
:100030001FC100001DC100001BC1000019C100004C
:1000400017C100000C94792613C1000011C10000F3
:100050000FC100000DC100000BC100000C948628E8
:1000600007C100000C94AE2B0C94E42B01C10000DE
:10007000FFC00000FDC00000FBC00000F9C0000090
:100080000C94A626F5C00000F3C00000F1C00000EB
:100090000C943A2C0C94702CEBC00000E9C00000CA
:1000A000E7C00000E5C000000C94D326E1C00000CA
:1000B000DFC00000DDC00000DBC000000C940027A2
:1000C000D7C00000D5C00000D3C000000C94C62CDF
:1000D0000C94FC2CCDC000000C94522D0C94882D57
:1000E000C7C0000000000A0B02090C0D0E08070330
:1000F00004010000000000000000000000000000FB
:1001000000000000000000000000000000000000EF
:1001100012111000000000000000000000000000AC
:100120000000000000000000000001021020200874
:100130000810204010204080020102010804020142
:1001400001020408102040808040201008040201B1
:10015000800402018040201008040201080402010A
:100160000102040810204080010204081020408091
:1001700005050505070508080808020202020A0A23
:100180000808040404040101010101010101030341
:10019000030303030303040707070C0C0C0C0C0CEC
:1001A0000C0C0202020206060606060606060B0BE9
:1001B0000B0B0B0B0B0B000020002300260029006B
:1001C0002C002F003200000100000301060109018C
:1001D00000002200250028002B002E0031003400F2
:1001E00002010000050108010B01000021002400AC
:1001F00027002A002D003000330001010000040117
:1002000007010A0190010D2C992C252DB12D1124E7
:100210001FBECFEFD1E2DEBFCDBF00E00CBF19E0C3
:10022000A0E0B2E0E6E9F3E600E00BBF02C0079011
:100230000D92A033B107D9F727E1A0E3B9E001C0DF
:100240001D92A335B207E1F711E0C7E0D1E000E06D
:1002500006C021970109802FFE010E94A42EC23002
:10026000D10780E00807A9F70E94F9220C94C93150
:10027000C7CECF92DF92EF92FF920F931F93E82F9A
:10028000F92F05C0015011092109310961F190814F
:1002900096239417B9F305C00150110921093109BA
:1002A00011F1908196239413F7CFC12CD12CE12C1E
:1002B000F12C0AC08FEFC81AD80AE80AF80A0C1500
:1002C0001D052E053F0579F080818623841791F363
:1002D0006C2D7D2D8E2D9F2D1F910F91FF90EF90F6
:1002E000DF90CF90089560E070E080E090E01F9193
:1002F0000F91FF90EF90DF90CF90089570E023E092
:10030000829FC0011124805D964F0C94F12770E00C
:1003100023E0829FC0011124805D964F0C942D280C
:1003200080E399E00C942D27CF93C62F61E00E94C3
:10033000F32960E08C2FCF910C94F3294F925F92B8
:100340006F927F92AF92BF92CF92DF92EF92FF9225
:100350000F931F93CF93DF935C01162FC42FD22FDF
:10036000611104C061E0842F0E94F32960E08C2FAA
:100370000E942F2A0E94D0282B013C010E94D028E5
:10038000641975098609970966307105810591051B
:10039000A8F361E08C2F0E942F2A0E94D0282B0105
:1003A0003C01C02ED12CF12CE12C0E94D0286419E4
:1003B000750986099709C616D706E806F906A8F74B
:1003C00060E08C2F0E942F2A111104C060E08D2F55
:1003D0000E94F32920E432E44FE050E061E08D2FE9
:1003E0000E945C2AF5016083718382839383DF918D
:1003F000CF911F910F91FF90EF90DF90CF90BF9022
:10040000AF907F906F905F904F90089590E080E064
:1004100008950F931F93009709F483C06115710528
:1004200009F47FC000917508109176082091770833
:10043000309178080E3F1F4F2F4F3F4F09F062C099
:100440004FEF5FEFBA0140937508509376086093C1
:1004500077087093780840917508509176086091FC
:10046000770870917808DC011296ED91FC918081FB
:100470009181A281B38180939D0990939E09A0935D
:100480009F09B093A00984819581A681B78180934B
:10049000990990939A09A0939B09B0939C09808530
:1004A0009185A285B3858093950990939609A09331
:1004B0009709B093980984859585A685B78580931B
:1004C000910990939209A0939309B0939409109283
:1004D0008D0910928E0910928F0910929009FDD506
:1004E00082E998E09093340980933309EDD4009722
:1004F00031F421E030E03093A2092093A1091F914B
:100500000F91089500917508109176082091770851
:1005100030917808DB010D931D932D933C93139735
:100520009ACF8FEF9FEFEBCF8F929F92AF92BF92B8
:10053000CF92DF92EF92FF921F93CF93DF934B0105
:100540005C011091A40982E090E09093A20980934D
:10055000A10981149104A104B10441F48091A4097A
:10056000811104C08091A309C1E08111C0E0C12CB8
:10057000D12C76018091A409811106C08091A30934
:10058000811102C0CC23D9F083E090E09093A209BE
:100590008093A109CC2379F1CCE9DFEF111102C0DE
:1005A0000E94F60BCE01DF91CF911F91FF90EF904B
:1005B000DF90CF90BF90AF909F908F9008956AE0AA
:1005C00070E080E090E00E94F52880E1C80E87E2AC
:1005D000D81EE11CF11C8FEF88169806A806B806F5
:1005E00031F0C1E08C149D04AE04BF0408F0C0E0FB
:1005F00080E09ED4BFCFD0E0C0E0D0CFCF92DF92DA
:10060000EF92FF921F93CF93DF938F3F910511F0ED
:1006100008F041C02091A1093091A2092330310591
:1006200039F02091A1093091A2092130310531F42E
:1006300024E030E03093A2092093A1096A017B01F4
:10064000EC01892BA9F011E0AE01C701B6013BD442
:10065000AB01BC0190E080E01123F9F0CE01DF9105
:10066000CF911F91FF90EF90DF90CF900C940B0EE5
:100670008091330990913409892B29F30E94120E3D
:10068000029709F7E0913309F091340990E080E096
:100690001995182FD9CF8FEF9FEFDF91CF911F9131
:1006A000FF90EF90DF90CF90089580E041C4CF930A
:1006B000DF9386E090E09093A2098093A10991D402
:1006C000EC0110923409109233090E948E0B1092A3
:1006D000A2091092A109CE01DF91CF9108958091D6
:1006E000A309089580918C0908956093750870930B
:1006F0007608809377089093780890E080E00895DA
:100700004F925F926F927F928F929F92AF92BF9221
:10071000CF92DF92EF92FF920F931F93CF93DF93CD
:10072000CDB7DEB7A3970FB6F894DEBF0FBECDBF2F
:10073000E0911612F0911712E050FE4F228188E1ED
:1007400092E1209318171F922F9322E938E03F93EC
:100750002F9321E02F931F929F938F930E94F42E4B
:100760000FB6F894DEBF0FBECDBF80910B12811182
:1007700010920B126E0190E2C90ED11C0AE025E026
:1007800044E061E0C601DADD68A179A18AA19BA1FC
:100790000E9407242EEA34ED43EB59E30E945E25C4
:1007A00020E030E040E05FE30E945E2520916A0394
:1007B00030916B0340916C0350916D030E945E2554
:1007C0004B015C012B013C01E89477F820E030E01C
:1007D00040E859E5C301B2010E94D72387FF16C044
:1007E00020E030E040E05FE3C301B2010E945A25FF
:1007F00087FD47C120E030E040E05FE3C501B40180
:100800000E9473230E9444244B015C01C501B40182
:1008100058D281113EC1C501B4010ED2811139C136
:1008200020E030E040E853E4C501B4010E945E24BA
:100830004B015C0120E030E0A9010E94D72387FF33
:100840002BC1C501B40190580E94DB2361956093D0
:1008500019171F926F9382E998E09F938F9381E01D
:100860008F931F9288E193E19F938F930E94F42EC0
:100870000FB6F894DEBF0FBECDBF909119178091CF
:1008800074084FEF50E06EE675E0891710F06EE6E1
:1008900076E088E195E10E94E52E109217161092FD
:1008A00018144FEF50E068E172E188E194E10E9492
:1008B000D52E08E114E1F80101900020E9F78F013D
:1008C00009511441C801885E9B4E5C01EE24EA94F4
:1008D000F12CA701401B510B6EE673E00E94D52E50
:1008E000F50101900020E9F73197EA19FB090E0F95
:1008F0001F1FF801E85EFB4E5F01A701401B510B73
:1009000068E173E1CF010E94D52EF501019000202E
:10091000E9F73197EA19FB090E0F1F1FC801885E1E
:100920009B4E5C01A701401B510B6EE674E00E94D8
:10093000D52EF50101900020E9F73197EA19FB095E
:100940000E0F1F1FF801E85EFB4E5F01A701401B61
:10095000510B68E175E1CF010E94D52EF5010190A0
:100960000020E9F73197CF018A199B09800F911F69
:10097000A701481B590B6EE677E0885E9B4E0E94EC
:10098000D52E4FEF50E068E174E188E196E10E94D6
:10099000E52E109217174FE150E068E176E1CE01A5
:1009A00001960E94E52EFE013196AAE1B7E1819100
:1009B0008D93EC15FD05D9F760911817653B08F08C
:1009C00064EB80E0A4DC80911612909117122091C4
:1009D000720830917308820F931F909317128093BF
:1009E000161220910002309101022817390740F4B5
:1009F00080916E0890916F08909317128093161251
:100A0000609163097091640980916509909166090C
:100A10006F5F7F4F8F4F9F4F60936309709364099F
:100A200080936509909366090E9407249B01AC019D
:100A300060916709709168098091690990916A09CC
:100A40000E945E2560935F0970936009809361093D
:100A500090936209A3960FB6F894DEBF0FBECDBF88
:100A6000DF91CF911F910F91FF90EF90DF90CF908A
:100A7000BF90AF909F908F907F906F905F904F90BE
:100A8000089520E030E0A901C501B4010E945E256F
:100A9000BBCE812C912C5401C501B4010E94DB23F3
:100AA000D6CECF93DF9384E090E08FD0E9E4F9E0F5
:100AB00080E090E0A0EAB0E482A393A3A4A3B5A34E
:100AC0008AE097EDA3E2BCE3868F978FA0A3B1A342
:100AD00089E49FE4ABEBB6E584839583A683B78373
:100AE0008AEC96E6AAE9B9E180879187A287B38765
:100AF00084EA92EEAFEEB3ED84879587A687B78739
:100B000086ED93E9A2E2BEE6808B918BA28BB38B3C
:100B1000ADE3B9E0B383A283E5E3F9E01196FC937A
:100B2000EE9387E998E09183808393838283958312
:100B30008483978386838DE599E015969C938E93A5
:100B400014978DE499E013969C938E9312978FE5FA
:100B500099E017969C938E931697C7E0D2E1809107
:100B6000700890917108988B8F8781E090E0A0E0E9
:100B7000B0E088839983AA83BB8365E084E0D4DBFB
:100B80001C8269E080E0DF91CF91B8CB089560E0EE
:100B900070E080E89FE7089560E070E080E89FE7FC
:100BA000089560E070E080E89FEF089560E070E0F5
:100BB00080E89FEF089560E070E080EC9FEF08957B
:100BC00060E070E080EC9FEF0895F5DF60934517DB
:100BD000709346178093471790934817F1DF6093FF
:100BE000391770933A1780933B1790933C17CFDFD8
:100BF0006093411770934217809343179093441763
:100C0000CBDF60933D1770933E1780933F1790930F
:100C10004017C7DF6093491770934A1780934B17AB
:100C200090934C17C3DF60934D1770934E178093CA
:100C30004F17909350170895CF92DF92EF92FF9243
:100C4000CF936B017C01AC019B01609141177091C6
:100C5000421780914317909144170E94D723C1E017
:100C6000882371F0A70196016091491770914A1786
:100C700080914B1790914C170E94D7238111C0E0AF
:100C80008C2FCF91FF90EF90DF90CF9008950F932E
:100C90001F938B019C010027112720783F770115B6
:100CA000110520483F4749F4AB01BC016F77772716
:100CB00081E0452B462B472B09F480E01F910F91D3
:100CC0000895E5CF4F925F926F927F928F929F929D
:100CD000AF92BF92CF92DF92EF92FF920F931F934A
:100CE000F89440907C0950907D0960907E09709046
:100CF0007F09C0907009D0907109E0907209F0905E
:100D00007309452B09F0A4C09B01AC0124193509D6
:100D10004609570929013A0100917809109179098A
:100D200020917A0930917B0948015901840C951C66
:100D3000A61CB71C80169106A206B306A0F400916B
:100D400074091091750920917609309177090F5F28
:100D50001F4F2F4F3F4F0093740910937509209335
:100D60007609309377098092780990927909A09258
:100D70007A09B0927B09009174091091750920914C
:100D80007609309177098092800990928109A0922A
:100D90008209B092830900938409109385092093F6
:100DA00086093093870960937C0970937D0980934D
:100DB0007E0990937F09A0E1B7E2A30192010E940E
:100DC000AC2E6C0D7D1D8E1D9F1D60937009709360
:100DD00071098093720990937309009175081091BD
:100DE000760820917708309178080F3F1F4F2F4FDA
:100DF0003F4FF1F000917508109176082091770827
:100E0000309178080E3F1F4F2F4F3F4F89F0C09011
:100E10007508D0907608E0907708F090780821E087
:100E20008C149D04AE04BF0408F420E020938C09C8
:100E300078941F910F91FF90EF90DF90CF90BF902B
:100E4000AF909F908F907F906F905F904F9008959C
:100E50004B015C0184189508A608B708A30192010C
:100E6000261B370B480B590B64157505860597052E
:100E7000D0F082169306A406B50640F420E030E0D8
:100E8000A90181149104A104B10491F4A0E1B7E295
:100E90000E94AC2EA7019601261B370B480B590B5D
:100EA000CA01B901C5CF82169306A406B50670F72C
:100EB000A0E1B7E2A50194010E94AC2E6C0D7D1D4E
:100EC0008E1D9F1DB5CFFECECF93DF9300D01F9216
:100ED000CDB7DEB71C821B821A8219821092880954
:100EE0001092890910928A0910928B09BE016F5FD6
:100EF0007F4FCE0103960E94C32169817A818B8145
:100F00009C810E94F31A009761F4BE016F5F7F4FCE
:100F1000CE0103960E94CF2169817A818B819C81C9
:100F200026D50F900F900F900F90DF91CF910895DD
:100F3000FF920F931F93CF93DF93082F60E070E031
:100F4000CB010E94F528FF24F3940E94DC19EC01E8
:100F5000892B89F010E0CE3F8FEFD80769F000238E
:100F600061F160E070E0CB010E94F52881E090E043
:100F7000892B59F322C011E01DD5EC01892B21F0FA
:100F8000CE3F8FEFD80759F711111EC011E02296FE
:100F900009F410E00E948C19EC01892B21F0CE3F5E
:100FA0008FEFD807E1F6111111C011E0CE3F8FEF9E
:100FB000D80709F410E001110BC0CE01DF91CF91E9
:100FC0001F910F91FF90089511E0E4CF11E0F3CF4E
:100FD00060E070E0CB010E94F5281F25812F90E092
:100FE000C7CFCF93DF931ED6D0E0C0E0892B71F03E
:100FF0006AE070E080E090E00E94F52881E098DFF0
:1010000011D62196C03D27E0D20781F710D60E9465
:10101000471B1092A4091092A30910929D091092E7
:101020009E0910929F091092A0091092990910929E
:101030009A0910929B0910929C091092950910929E
:10104000960910929709109298091092910910929E
:101050009209109293091092940910928D0910929E
:101060008E0910928F09109290094EEF5FEF6FEF8B
:101070007FEF4093750850937608609377087093DC
:10108000780810928C09E0E8F9E028E0DF011D9271
:101090002A95E9F710927C0910927D0910927E0939
:1010A00010927F09109278091092790910927A09AA
:1010B00010927B09109274091092750910927609AA
:1010C00010927709109270091092710910927209AA
:1010D00010927309DF91CF9108951092B009109288
:1010E000B1091092B2091092B3091092AF09809120
:1010F000B8099091B9099093AE098093AD09109207
:10110000AC091092AB091092A7091092A80910928D
:10111000A9091092AA091092B5091092B40990E099
:1011200080E00895CF92DF92EF92FF920F931F938A
:10113000CF938C01892B09F055C02091B8093091CB
:10114000B9098091AD099091AE094091B8095091CB
:10115000B9095093AE094093AD092817390781F0BA
:101160001092AC091092AB091092A7091092A8092D
:101170001092A9091092AA091092B5091092B40907
:101180008091B8099091B909019761F58091B409EE
:101190009091B509892B21F480917908811112C0B1
:1011A0008091B4099091B5090197E1F48091A70964
:1011B0009091A809A091A909B091AA090197A10548
:1011C000B10581F41092A7091092A8091092A909FB
:1011D0001092AA091092790882E090E09093B509E4
:1011E0008093B4098091B8099091B909019709F0E9
:1011F0001CC18091CE099091CF098017910709F009
:1012000014C18091CA099091CB09A091CC09B091E9
:10121000CD09009709F409C12091C90921110DC018
:101220004091CA095091CB096091CC097091CD09C8
:10123000452B462B472B09F4F8C02091B409309177
:10124000B5092230310509F0F0C02091AB09211118
:10125000ECC0FC01C080D180E280F3808091AF09B6
:10126000882309F4D3C08091BB099091BC09892BD4
:1012700009F4FDC02091BB093091BC0981E0223006
:10128000310509F080E02091BB093091BC09C1E033
:101290002130310549F02091BB093091BC09C1E0F2
:1012A0002230310509F0C0E0882309F456C02091AE
:1012B000C5093091C6094091C7095091C809C701B5
:1012C000B6010E945A2587FD14C02091C5093091AE
:1012D000C6094091C7095091C8096091B009709141
:1012E000B1098091B2099091B3090E94D72387FD7B
:1012F00022C02091C5093091C6094091C70950917B
:10130000C809C701B6010E945A25181634F5209164
:10131000C5093091C6094091C7095091C80960912B
:10132000B0097091B1098091B2099091B3090E94FE
:10133000D723811112C08091BD099091BE09A0915F
:10134000BF09B091C009892B8A2B8B2B19F481E03E
:101350008093AC0981E08093AB09CC2309F456C09B
:101360002091C5093091C6094091C7095091C8091B
:10137000C701B6010E94D72387FF14C02091C50979
:101380003091C6094091C7095091C8096091B009D0
:101390007091B1098091B2099091B3090E945A25C8
:1013A00087FF22C02091C5093091C6094091C70925
:1013B0005091C809C701B6010E94D723811126C0E8
:1013C0002091C5093091C6094091C7095091C809BB
:1013D0006091B0097091B1098091B2099091B309FF
:1013E0000E945A25181694F48091BD099091BE0967
:1013F000A091BF09B091C009892B8A2B8B2B19F4BE
:1014000081E08093AC0981E08093AB0981E0909109
:10141000AB09911180E08093AF09C092B009D092DE
:10142000B109E092B209F092B309012B09F067C14A
:101430008091B4099091B509892BD9F41092BA0919
:101440001092AB0980917908882379F082E090E0CE
:101450009093B5098093B409109279082091B80946
:101460003091B90981E0232BE9F080E01BC081E0D5
:101470000ACF109279088091BA09882349F0109216
:10148000AC091092B5091092B4091092BA09EDCFC7
:101490008091B8099091B909892BE1F08091AB094D
:1014A0001092AB092091B4093091B5092230310571
:1014B00009F45EC088F42115310509F448C02130D3
:1014C000310509F4F3C01092AC091092AB091092E7
:1014D000BA0938C081E0E6CF2330310509F4B1C044
:1014E0002430310581F74091A7095091A8096091F6
:1014F000A9097091AA09411551056105710561F0AD
:1015000041505109610971094093A7095093A809F5
:101510006093A9097093AA094091A7095091A8095D
:101520006091A9097091AA09452B462B472BD9F444
:101530002091B6093091B7092130310509F046C034
:101540001092AC091092B5091092B4090CC08091A8
:101550007908882341F082E090E09093B509809368
:10156000B409109279081092A5098091AC09CEC0F7
:101570008823C9F38091BD099091BE09A091BF094C
:10158000B091C009181619061A061B060CF07DC08A
:101590008091B8099091B909019709F076C08091BE
:1015A000BD099091BE09A091BF09B091C009809377
:1015B000A7099093A809A093A909B093AA0983E069
:1015C00090E09093B5098093B409CDCF4091C109C3
:1015D0005091C2096091C3097091C409452B462BF3
:1015E000472BA9F01092AC098091C1099091C209D2
:1015F000A091C309B091C4098093A7099093A80949
:10160000A093A909B093AA0981E090E0DACF8823DA
:1016100099F080917A0890917B08A0917C08B09114
:101620007D088093A7099093A809A093A909B09376
:10163000AA0984E090E0C5CF1092AC0982E090E066
:10164000C0CF8091A7099091A809A091A909B09154
:10165000AA090097A105B10559F00197A109B1099F
:101660008093A7099093A809A093A909B093AA0908
:101670008091A7099091A809A091A909B091AA0900
:10168000892B8A2B8B2B09F06ECF80917A08909151
:101690007B08A0917C08B0917D08892B8A2B8B2B2D
:1016A00009F44ECF81E08093AC09B3CF4091A709F4
:1016B0005091A8096091A9097091AA094115510595
:1016C0006105710561F0415051096109710940934B
:1016D000A7095093A8096093A9097093AA0940919A
:1016E000A7095091A8096091A9097091AA09452BF1
:1016F000462B472B09F037CF8111C7CF9FCF809161
:10170000A509882309F431CF8091A609CF911F91B3
:101710000F91FF90EF90DF90CF9008951092B00955
:101720001092B1091092B2091092B3091092AF0948
:101730001092B5091092B4091092AE091092AD0939
:101740001092CF091092CE091092AC091092AB09F9
:101750001092A7091092A8091092A9091092AA093B
:101760001092A6091092A5091092CA091092CB09ED
:101770001092CC091092CD091092C9091092C50996
:101780001092C6091092C7091092C80988EE93E01A
:10179000A0E0B0E080937A0890937B08A0937C0847
:1017A000B0937D081092C1091092C2091092C3092A
:1017B0001092C4091092BD091092BE091092BF097F
:1017C0001092C0091092BC091092BB0981E080936D
:1017D00079081092BA091092B9091092B8091092BA
:1017E000B7091092B60990E080E008958091B80999
:1017F0009091B909892B19F580917908882351F0C6
:101800008091BA09811106C081E08093A609809376
:10181000A50908952091BA093091790881E090E0F6
:10182000332311F090E080E030E082239323892B72
:1018300021F01092A60981E0EACF1092A50908953F
:1018400082E090E0FA01918380838FEF9FEF08950B
:10185000CF93DF93EA01009711F00E94611C198277
:10186000188290E080E0DF91CF910895DB0100972E
:1018700019F48FEF8C9308952EEF2C93FC013F9673
:10188000EF30F10508F034C08827E65BF34F8F4F47
:101890000C94A42E760C740C720C700C6E0C6A0CEA
:1018A0006C0C680C660C640C610C5D0C590C5F0CC4
:1018B000780C80E311968C93089589E2FBCF82E245
:1018C000F9CF11961C92089583E2F4CF81E2F2CF12
:1018D00081E1F0CF87E2EECF8AE2ECCF80E1EACF80
:1018E00084E2E8CF88E2E6CF86E2E4CF81E3E2CF8C
:1018F00080E2E0CF8091DC099091DD09089590931A
:10190000DD098093DC0908958091DB0908959091A9
:10191000DB09892B8093DB090895982F909580919E
:10192000DB0989238093DB0908958091DA09089502
:101930008091D8099091D90908956115710559F0E0
:10194000FB0130E020E070E060E02417350719F07B
:101950006115710511F0CB010895A081B181A8171F
:10196000B90709F4BF012F5F3F4F3696EECF809144
:10197000DE0981111CC041D247D29093D1098093D6
:10198000D0090E94CF150E94E1159093D50980934C
:10199000D4090E94F4180E94FB189093D3098093F5
:1019A000D20981E08093DE0990E080E0089584EF21
:1019B0009FEF08958F929F92AF92BF92CF92DF9246
:1019C000EF92FF920F931F93CF93DF9300D000D03D
:1019D00000D01F92CDB7DEB71A86198618861F82EF
:1019E0001E821D821C821B821A8219828091DE094E
:1019F00007EF1FEF882309F48BC08E010D5F1F4F87
:101A00009E012B5F3F4FAE01495F5F4FBE01675F95
:101A10007F4F90E080E00E94781A8C01009721F0BF
:101A20000596029708F0C7C089859A85009709F442
:101A3000EFC0ED80FE802B813C812E0D3F1D4F813C
:101A400058854217530708F4E3C0E80EF91ED70182
:101A50004C912091DC093091DD09232B09F494C0CD
:101A6000413F08F069C08CE1840F8D3008F483C0D9
:101A70008DE2840F803108F481C088E3840F8B30BD
:101A800008F47FC096E3C92E9CE0D92EE0E2FCE08A
:101A90006D817E81AE014F5F5F4F89859A85199573
:101AA0005C01C114D104A1F189809A808114910450
:101AB00079F18B819C818815990508F484C010E028
:101AC00000E04B815C8170E060E0C7010E94CE2E97
:101AD00001151105E9F449815A8169857A858D815D
:101AE0009E81680F791FC501F6011995E980FA807A
:101AF0000D811E812F81388549855A856FEF7FEFD3
:101B000081E090E00E94131A8C01892B09F053C0E8
:101B1000C8012A960FB6F894DEBF0FBECDBFDF9185
:101B2000CF911F910F91FF90EF90DF90CF90BF90DA
:101B3000AF909F908F90089530E020E0220F331FE8
:101B4000F901E053F64F0190F081E02D309709F450
:101B500099CF842F90E01995009709F493CFDC0179
:101B60001296ED91FC9113971496CD90DC903097DE
:101B700009F08ECF1EC021E030E0E0CF22E030E05F
:101B8000DDCF23E030E0DACFD12CC12CE8E2FCE05D
:101B90004F3F09F07DCFE091D009F091D109309706
:101BA00019F404EF1FEF0CC08FEF90E01995009728
:101BB000B1F604EF1FEF89859A85009709F4A8CF45
:101BC0000E94611CA5CF0E94421B8C0189859A85C9
:101BD0000E94611C70E060E0C4010E94DB1A9887DB
:101BE0008F830E94101A9E838D836F817885611583
:101BF000710559F0C8010E94F71D9A87898706EF81
:101C00001FEF892B09F05BCF5CCF08EF1FEF59CF97
:101C100008EF1FEFD0CF2091DE092111D7C787EF42
:101C20009FEF08958091DC099091DD0908950E944D
:101C300000190E945A18EDD0E0EDF9E088E0DF01CC
:101C40001D928A95E9F71092DE0990E080E00895F0
:101C500086E090E0FA019183808390E080E008952F
:101C600047E050E06AE978E068CEDF92EF92FF92B9
:101C70000F931F93CF93DF938A01EC01C60FD71FF9
:101C8000E090E209F090E309D9800E942A1BD8165F
:101C9000190678F082E090E0F801918380838EEF5E
:101CA0009FEFDF91CF911F910F91FF90EF90DF9009
:101CB0000895EF2841F482E090E0F8019183808359
:101CC00084EF9FEFEECF89818093E10990E0019648
:101CD000F8019183808390E080E0E3CFCF93DF939E
:101CE000EA010E946E17882321F00E94371B0E9490
:101CF0006F1782E090E0998388838BEF9FEFDF91ED
:101D0000CF910895CF93DF93EB0186E0FB01119211
:101D10008A95E9F78FEF8883F7DD898306DE8A836A
:101D200007DE9D838C83DF91CF910895CF93DF935E
:101D3000EA010E947117811109C082E090E0998345
:101D4000888385EF9FEFDF91CF91089590E080E049
:101D5000D6DD81E090E09983888390E080E0F3CF46
:101D60000F931F93CF93DF93EA018C01060F171F88
:101D70000E94711781110BC082E090E099838883E3
:101D800085EF9FEFDF91CF911F910F910895F8019B
:101D90008181823038F082E090E0998388838EEFF1
:101DA0009FEFF0CF81E090E0AADD88E090E099839A
:101DB000888390E080E0E6CFCF93DF930097D1F463
:101DC000EB01FB01329686E0DF011D928A95E9F76F
:101DD0008FEF888385E089831A820E942A1B8B8378
:101DE0000E94291B9D838C8381E08E838F83DF91EA
:101DF000CF910895DF91CF9139CD80E39EE090930C
:101E0000E0098093DF0908958091DF099091E0094E
:101E100008951092E0091092DF0908958091E20977
:101E20009091E3090895411105C06115710581057F
:101E3000910561F06093E2097093E3098093E409EE
:101E40009093E5094093E60981E0089580E00895C4
:101E5000FF920F931F93CF93DF938A01EC01C60F7C
:101E6000D71FF9800E942A1BF816190668F082E035
:101E700090E0F801918380838EEF9FEFDF91CF9107
:101E80001F910F91FF9008956C817D818E819F81BC
:101E90004B81C9DF811108C082E090E0F801918395
:101EA000808384EF9FEFEACF89818093E10990E0FE
:101EB0000196F8019183808390E080E0DFCFCF939B
:101EC000DF93EA01FC01E60FF71F648175818681CB
:101ED00097814381A8DF811109C082E090E0998356
:101EE000888384EF9FEFDF91CF91089581E090E0A8
:101EF0009983888390E080E0F6CFE2EEF9E04081BC
:101F0000518162817381480F511D611D711D408394
:101F10005183628373830895CF93C091E1094C2F5D
:101F200050E06091E2097091E30901960E94C52E8C
:101F30008C2FE3DF1092E109CF910895009799F477
:101F40008091E2099091E3092FEFFB012083892B17
:101F500059F02091E10930E02F5F3F4F24173507FA
:101F600019F4CB01D9CF82CC0895009799F48091D0
:101F7000E2099091E3092FEFFB012083892B59F0AF
:101F80002091E10930E02F5F3F4F2417350719F406
:101F9000CB01C2CF6BCC08952DE0AC01249FC001D2
:101FA000259F900D1124E091EB09F091EC09E80FC9
:101FB000F91F238134812250310981E0223031051B
:101FC00008F080E008950F931F93CF93DF93009163
:101FD000ED091091EE09D0E0C0E080E00C171D077C
:101FE00049F491E0811190E0892FDF91CF911F9109
:101FF0000F9108958111F5CFCE01CEDF2196EECF5E
:10200000A091EB09B091EC09109729F12091ED090D
:102010003091EE0982179307F0F45DE0589F90012C
:10202000599F300D1124A20FB31FED91FC91119710
:10203000309789F012968C91681768F485E0689F54
:10204000E00DF11D112480819181892B21F081E027
:102050009281491708F080E00895EF92FF920F9364
:102060001F93CF93DF93EA01FC01E60FF71F028174
:102070001381E480F5804F2D6E2DC801C1DF8111E1
:102080000DC082E090E0998388838EEF9FEFDF910F
:10209000CF911F910F91FF90EF900895C8017CDFC1
:1020A000882339F082E090E09983888388EF9FEF5E
:1020B000EECF1093850800938408E0928608F09292
:1020C000870881E090E09983888390E080E0DFCF0B
:1020D000CF92DF92EF92FF920F931F93CF93DF93F4
:1020E0007A01EC01C60FD71FC0908408D0908508F4
:1020F0000091860810918708412F602FC60180DF6C
:10210000811110C082E090E0F701918380838AEF13
:102110009FEFDF91CF911F910F91FF90EF90DF9094
:10212000CF900895C60138DF882341F082E090E027
:10213000F7019183808388EF9FEFEBCF4C815D8126
:102140006E817F819A8189818F3F41F082E090E0AA
:10215000F701918380838EEF9FEFDBCFEDE0EC9D65
:102160009001ED9D300D1124E091EB09F091EC0907
:10217000E20FF31F0190F081E02D25E0029FE00DBA
:10218000F11D11240190F081E02D27E0129FE00D58
:10219000F11D1124808391838B8182834383548337
:1021A000658376831F5F1093870881E090E0F701D5
:1021B0009183808390E080E0ACCFEF92FF920F9309
:1021C0001F93CF93DF937A018C01060F171FC091E5
:1021D000EB09D091EC09209781F021E030E0F80183
:1021E000828193814091ED095091EE098417950702
:1021F00010F030E020E0232B71F482E090E0F70152
:10220000918380838EEF9FEFDF91CF911F910F918C
:10221000FF90EF9008954DE0489F9001499F300D49
:102220001124C20FD31FB8DE882341F082E090E072
:10223000F7019183808388EF9FEFE6CFF801248137
:10224000358120383105C8F687818111D6CF41818B
:10225000842F90E08F7E009741F082E090E0F701BC
:102260009183808386EF9FEFCFCF4F833E832D8373
:10227000268128871986223010F421E0288721E062
:1022800030E0F70131832083BFCF88E090E0FA018E
:102290009183808390E080E00895FB018FEF80833D
:1022A00081E181838FEF9FEF9383828380E890E0C9
:1022B00095838483168217820895FB018FEF8083B4
:1022C00091E0918382839383848384E3858381E097
:1022D00090E09783868308954BE050E064EC78E0CB
:1022E0002CCB8F929F92BF92CF92DF92EF92FF9270
:1022F0000F931F93CF93DF93EA01FC01E60FF71FC3
:10230000828193810481B580E091EB09F091EC0921
:10231000309791F482E090E0998388838CEF9FEF6F
:10232000DF91CF911F910F91FF90EF90DF90CF90B1
:10233000BF909F908F9008952091ED093091EE0904
:102340008217930738F082E090E0998388838EEFBC
:102350009FEFE6CF2DE0289F6001299FD00C11242C
:10236000EC0DFD1DE080F180E114F10499F2828111
:10237000081748F785E0089F80011124E00EF11E40
:10238000F70180819181892B29F6BB20E1F2F7E0EA
:10239000BF9E40011124C4010E94131CF7019183C8
:1023A0008083E091EB09F091EC09EC0DFD1D0190AB
:1023B000F081E02DE00FF11F80819181009739F4C9
:1023C00082E090E0998388838DEF9FEFA9CFA401ED
:1023D00070E060E00E94CE2E8091EB099091EC09B4
:1023E000C80ED91EF60180819181080F191FF801CE
:1023F000B28281E090E09983888390E080E090CF82
:10240000AF92BF92CF92DF92FF920F931F93CF9321
:10241000DF93EA01FC01E60FF71F82819381F480CC
:102420000091EB091091EC090115110581F482E08E
:1024300090E0998388838CEF9FEFDF91CF911F917C
:102440000F91FF90DF90CF90BF90AF9008952091B3
:10245000ED093091EE098217930738F082E090E0A1
:10246000998388838EEF9FEFE8CF2FEF2F0D2C3FBE
:10247000A8F72DE0289F6001299FD00C11240C0D96
:102480001D1DF80180819181892B89F6F5E0FF9E61
:1024900050011124C5010E94131CF801918380830F
:1024A000E091EB09F091EC09EC0DFD1D808191812B
:1024B000009739F482E090E0998388838DEF9FEF55
:1024C000BCCFA50170E060E00E94CE2EE091EB0948
:1024D000F091EC09EC0DFD1DF28281E090E0998312
:1024E000888390E080E0A9CFCF92DF92EF92FF92B5
:1024F0000F931F93CF93DF93860F971FFC010281E9
:1025000013818091EB099091EC09892B81F082E095
:1025100090E0FA01918380838CEF9FEFDF91CF9160
:102520001F910F91FF90EF90DF90CF900895C80119
:10253000B0E0A0E00197A109B1098F3F9F4FA1052D
:10254000B10540F082E090E0FA01918380838EEF44
:102550009FEFE4CF7A018DE0809F6001819FD00CD6
:102560001124C6010E94131CEC01009741F482E083
:1025700090E0F701918380838DEF9FEFCFCFA6018D
:1025800070E060E00E94CE2ED093EC09C093EB097E
:102590001093EE090093ED0990E080E02FEF3FEFFC
:1025A0008017910741F481E090E0F70191838083E7
:1025B00090E080E0B3CF3C872B8701962D96F0CF3B
:1025C000CF92DF92EF92FF920F931F93CF93DF93FF
:1025D000EC01D12CC12C10E000E0F12CE12C8A811F
:1025E0008017110609F0BCF4AE01455F5F4F63E050
:1025F00070E0C7010E948D1C009721F02FEF3FEF84
:102600003C872B87DF91CF911F910F91FF90EF9027
:10261000DF90CF900895E881F981EC0DFD1D2381B5
:102620003481C90101960115110519F44F8144FD4A
:10263000049661E070E0BFD7E816F90608F47C0163
:102640000F5F1F4F85E0C80ED11CC9CFF8942091B1
:10265000E9093091EA0981E02115310509F080E0AE
:10266000232B09F0789408954F925F926F927F9296
:102670008F929F92AF92BF92CF92DF92EF92FF9292
:102680000F931F93CF93DF933C01660E771EF301E8
:10269000828193814C01B12CA12CC091EB09D09186
:1026A000EC09209769F021E030E06091ED0970912C
:1026B000EE098617970710F030E020E0232BC1F4D5
:1026C00082E090E0FA01918380838EEF9FEFDF91AB
:1026D000CF911F910F91FF90EF90DF90CF90BF901F
:1026E000AF909F908F907F906F905F904F900895E4
:1026F0008092880890928908A0928A08B0928B08EC
:102700006DE0689F9001699F300D1124C20FD31FA7
:10271000F3018181833040F082E090E0FA019183FF
:10272000808386EF9FEFD3CF2A012B813C81232B1F
:10273000F1F4288139819F8191FF2EC0232B09F468
:1027400064C02091F0099A81422F490F5527551FE7
:10275000BA0141E050E06138710514F050E040E00A
:10276000452B09F452C02A87920F9093F0098150AB
:10277000823008F476C06ADF882309F4C5C0F3010B
:102780008181813009F480C008F470C0823009F47E
:10279000B3C090E080E08EC0232BB9F12091EF0907
:1027A0009A81E22FE90FFF27FF1F41E050E0ED3F44
:1027B000F10514F050E040E0452B39F12A87920FE3
:1027C0009093EF09D4CFA081B181A20FB31F1196CE
:1027D0006C91060F111D0196295F3F4F84179507D5
:1027E00094F3C114D104C9F48F8184FF16C031D78A
:1027F00021E0A8014B5F5F4F8417950708F420E0A4
:10280000A7014B5F5F4F21110EC082E090E0F20103
:102810009183808387EF9FEF5ACF1BD721E0A801D8
:102820004F5F5F4FE9CF88819981E80EF91EF7016C
:1028300014830383FFEFCF1ADF0A7A018A818C1594
:102840001D0409F00CF497CFE881F981EE0DFF1D0E
:10285000428150E030E020E010E000E090E080E0D5
:10286000BDCFF12CE12CD12CC12CE8CF81E090E040
:102870009C838B83A8DB882309F48BCF81E090E0D5
:102880003ED880E44AD885CF8B859C85019651F04F
:1028900083E090E09C838B8382E090E030D880E4FA
:1028A00036D877CF89288A288B2879F4CE0188DE1C
:1028B000009771F3789422E030E0F20131832083B5
:1028C000892BF9F08DEF9FEF02CF2D813E81809112
:1028D0007E0890917F0828173907D1F66091820809
:1028E00070918308AE01455F5F4F809180089091A1
:1028F00081080E94B61DDCCF82E090E09C838B8330
:1029000048CF90E080E0E3CE82E090E0F201918356
:10291000808385EF9FEFDBCE8F929F92AF92BF9225
:10292000CF92DF92EF92FF920F931F93CF93DF939B
:10293000EA018C01060F171FF8018181833098F09E
:1029400082E090E09983888386EF9FEFDF91CF91BB
:102950001F910F91FF90EF90DF90CF90BF90AF90BD
:102960009F908F9008958091EB099091EC09892BAD
:1029700061F081E090E02091ED093091EE09232B88
:1029800011F490E080E0892B39F482E090E09983A3
:1029900088838EEF9FEFDACF59DE882309F4D5C004
:1029A000F8018181813009F48BC0E8F0823099F41C
:1029B0002091ED093091EE09E091EB09F091EC09DD
:1029C00090E080E041E050E02817390709F0B3C0FB
:1029D000FADA811117C0789481E090E099838883B6
:1029E00090E080E0B3CF2091ED093091EE09E091C5
:1029F000EB09F091EC0990E080E041E050E028170D
:102A0000390741F481E090E00E947F0C80E40E944D
:102A10008D0CE1CF63817481672B11F05483438364
:102A200001963D96ECCFE091EB09F091EC09E00FB7
:102A3000F11F238134812230310561F423853485EF
:102A40002F3F3F4F39F4C114D104E104F10409F5DB
:102A5000CF01B6DDEFEFCE1ADE0AEE0AFE0A035F03
:102A60001F4F4091ED095091EE0970E060E0C416EF
:102A7000D506E606F70664F50097A9F27894892B47
:102A800009F4AACF82E090E0998388838DEF9FEFCD
:102A90005DCF4581568120917E0830917F08421795
:102AA0005307C1F6AF01455F5F4F60918208709197
:102AB000830880918008909181080E94B61DCACF3A
:102AC00010E000E090E080E0C12CD12C7601C9CF6D
:102AD0000097A1F610E000E0812C912C540183E0D6
:102AE000E82EF12C1AC0E091EB09F091EC09E00F0F
:102AF000F11F83819481029749F4F482E38282E09A
:102B000090E00E947F0C80E40E94870CFFEF8F1AF8
:102B10009F0AAF0ABF0A035F1F4F8091ED09909192
:102B2000EE09B0E0A0E088169906AA06BB06DCF222
:102B300090E080E0A3CF638174816230710511F46D
:102B40005483438301963D963FCF82E090E0998382
:102B5000888385EF9FEFFACE0097B9F48FEFFB01E2
:102B6000808320918808309189084DE0429FC00100
:102B7000439F900D1124E091EB09F091EC09E80FCF
:102B8000F91F8285FB01818308950C94360C88E03F
:102B900090E0FA019183808390E080E008951092A4
:102BA000EA091092E909EBEEF9E086E0DF011D92F7
:102BB0008A95E9F78CE691E19093E8098093E7091B
:102BC00008958091E7099091E80908952F923F9226
:102BD0004F925F926F927F928F929F92AF92BF922D
:102BE000CF92DF92EF92FF920F931F93CF93DF93D9
:102BF000CDB7DEB762970FB6F894DEBF0FBECDBF7C
:102C0000F8942091E9093091EA092F5F3F4F309302
:102C1000EA092093E90978942091EB093091EC09B5
:102C20003B832A83232B09F456C12091ED0930916F
:102C3000EE09232B09F44FC14D875E876F87788B90
:102C40009C878B878A819B819A8B898BD12CC12C05
:102C5000198210E000E08091ED099091EE09C8160C
:102C6000D90618F43981332329F1F8948091E909C0
:102C70009091EA0901979093EA098093E909789481
:102C8000C80162960FB6F894DEBF0FBECDBFDF91CC
:102C9000CF911F910F91FF90EF90DF90CF90BF9059
:102CA000AF909F908F907F906F905F904F903F90EC
:102CB0002F900895B60190E080E029D38887A989F4
:102CC000BA8917968C91179781FD8DC013968D91B7
:102CD0009C911497039709F086C01596ED91FC918D
:102CE000FF83EE832B853C85E217F30709F07BC059
:102CF000712C612C512C412C63C092D39A87898707
:102D000010E04114510431F4A989BA8917961C9135
:102D100012951170A989BA89ED91FC91E60DF71D04
:102D200023803480111169C0BFEF2B1A3B0A61E088
:102D300070E0C10140D45C01A989BA891B968D91CC
:102D40009C918F3F980709F45CC0B50150D74C01A6
:102D5000009709F4BBC0E985FA85E80FF91FA98936
:102D6000BA891A968C91840D808311114DC08F0100
:102D70000F5F1F4F80917E0890917F08AE81BF81C9
:102D8000A817B90709F09DC081E090E0B885BB2382
:102D900011F090E080E0710109851A859501A40188
:102DA000B6019195819591093ED38C01892B11F043
:102DB000C40187D58FEF481A580A95E0690E711C37
:102DC000A989BA8912968C918415150429F024F0EA
:102DD000B981BB2309F491CFE885EE2321F0B60138
:102DE00090E080E096D2FFEFCF1ADF0A29893A8976
:102DF000235F3F4F3A8B298B2ECFE5E02E0E311CFF
:102E000096CFC50110D5A3CF8D859E85AF85B88996
:102E100081839283A383B4838F010B5F1F4FAACF5B
:102E2000E080F180EC81FD81EE0EFF1ED70113964C
:102E30006D917C9114978C918F3FE1F1E1E0F0E08E
:102E400002C0EE0FFF1F8A95E2F7CF01092E000C9A
:102E5000AA0BBB0BFB0140815181628173818423EA
:102E60009523A623B72321E0892B8A2B8B2B09F4EA
:102E700020E0D8012C93D70111968C91080F111DD9
:102E8000EA81FB813196FB83EA832C813D81295FB6
:102E90003F4F3D832C83A989BA89ED91FC91E60DC2
:102EA000F71D82812A813B818217130611F00CF0F5
:102EB000B7CF6ACFF701418150E0C8010E94C52E0B
:102EC000DACF1D821C821B821A82E5CF31E0398362
:102ED00006EF1FEF6FCF10E000E0C7CEB7CB7894BE
:102EE00008952F923F924F925F926F927F929F929E
:102EF000AF92BF92CF92DF92EF92FF920F931F9308
:102F0000CF93DF9300D000D0CDB7DEB70091EB09AF
:102F10001091EC09992493940115110509F43EC010
:102F2000A090ED09B090EE0991DB982E8823B1F1C5
:102F30001092EC091092EB091092EE091092ED0933
:102F40001092EF091092F0098FEF9FEFDC01809350
:102F5000880890938908A0938A08B0938B08789486
:102F60007AD31E830D83C12CD12C7601C501B0E02C
:102F7000A0E089839A83AB83BC8322242A94322CD9
:102F800089819A81AB81BC81C816D906EA06FB0605
:102F9000F4F0C80196D480E40E948D0C892D269609
:102FA0000FB6F894DEBF0FBECDBFDF91CF911F915A
:102FB0000F91FF90EF90DF90CF90BF90AF909F90D8
:102FC0007F906F905F904F903F902F900895C11425
:102FD000D104E104F10409F5D8011B968D919C916F
:102FE0008F3F980709F043D5F80134862386ED8199
:102FF000FE8180819181B12CA12C412C512C320178
:10300000892B69F5BFEFCB1ADB0AEB0AFB0AED81CE
:10301000FE813D96FE83ED83B3CFAD81BE811596D3
:103020002D913C91169780917E0890917F082817EA
:103030003907E9F61B968D919C91C7D5D8CF8A0D9B
:103040009B1DDC018D919C91009709F03AD4BFEF54
:103050004B1A5B0A6B0A7B0AE5E0AE0EB11CAD8130
:10306000BE818D919C91119712964C9150E070E029
:1030700060E044165506660677060CF322D4C2CFEC
:10308000CF93DF93EA012DDF811109C082E090E048
:103090009983888385EF9FEFDF91CF91089581E039
:1030A00090E00E947F0C81E090E09983888390E01B
:1030B00080E0F2CF16DF1092E8091092E709089538
:1030C00042E050E066E079E00C949D0CFF920F9393
:1030D0001F93CF93DF938A01EC01C60FD71FF980AE
:1030E000B9D20897F816190671F068F082E090E0FE
:1030F000F801918380838EEF9FEFDF91CF911F9135
:103100000F91FF9008956C817D818E819F814B810D
:103110000E94130F811108C082E090E0F8019183B2
:10312000808384EF9FEFE9CFF9800E940E0F4F2D2F
:1031300050E0BE01685F7F4F0E94C52E89810E94CA
:103140007D0F81E090E0F8019183808390E080E042
:10315000D4CFDF92EF92FF920F931F93CF93DF9321
:103160008A01EC01C60FD71F0E940E0F7C01D98087
:1031700071D2DD2059F0029721E030E0D81619060F
:1031800019F010F030E020E0232B79F482E090E099
:10319000F801918380838EEF9FEFDF91CF911F9194
:1031A0000F91FF90EF90DF900895EF2841F482E0B7
:1031B00090E0F8019183808384EF9FEFEECFF98058
:1031C0000E940E0F4F2D50E0BE016E5F7F4F0E9498
:1031D000C52E89810E947D0F81E090E0F8019183E6
:1031E000808390E080E0D9CF80E698E19093F20967
:1031F0008093F10908958091F1099091F209089561
:103200000895FC0111821082938382830895DB016B
:103210001D921C92DC011296ED91FC911397718323
:10322000608313967C936E9312970895FC018081BE
:103230009181DB018D939C93A081B181109741F026
:103240008D919C9191838083892B11F4F383E28388
:103250000895FC0180819181DB018D939C93892BE2
:1032600011F473836283718360830895FC0111827A
:103270001082938382830895CF93DF931F921F92CE
:10328000CDB7DEB71A821982F894BE016F5F7F4F07
:1032900088EF99E0CBDF89819A81009709F011D3FB
:1032A00089819A81892B89F7BE016F5F7F4F8CEFEF
:1032B00099E0BCDF89819A81009709F002D3898166
:1032C0009A81892B89F778940F900F90DF91CF9195
:1032D0000895CF93DF931F921F92CDB7DEB71A8266
:1032E0001982F894BE016F5F7F4F84EF99E09EDFF3
:1032F00089819A81009709F0E4D289819A81892B8A
:1033000089F778940F900F90DF91CF91089581E025
:10331000089590E080E00895EF92FF920F931F933D
:10332000CF93DF931F921F92CDB7DEB71A82198217
:103330008091F30907EF1FEF8823A1F1F894BE01F4
:103340006F5F7F4F8CEF99E071DF789489819A816C
:10335000EE24E394F12C892B51F4F894BE016F5FB5
:103360007F4F88EF99E062DF7894F12CE12C89811E
:103370009A810EEF1FEF0097A9F0FC014281538163
:1033800064E070E034D68C01892B61F0F894698197
:103390007A81C701880F991F880F991F8850964F0F
:1033A00058DF7894C8010F900F90DF91CF911F9153
:1033B0000F91FF90EF9008950F931F93CF93DF939A
:1033C00000D01F92CDB7DEB71C821B821A821982F1
:1033D0008091F30907EF1FEF8823C1F0AE014D5F25
:1033E0005F4F64E070E0CE01019674D68C01892BAA
:1033F00069F4E981FA818B819C8193838283F894BB
:1034000069817A8184EF99E002DF7894C8010F9096
:103410000F900F900F90DF91CF911F910F91089512
:1034200079D7049608958F929F92AF92BF92CF92D0
:10343000DF92EF92FF920F931F93CF93DF931F9230
:103440001F92CDB7DEB71A821982BC016F5F7F4F22
:103450006330710598F0AA24AA94BA2CC5010F9084
:103460000F90DF91CF911F910F91FF90EF90DF9020
:10347000CF90BF90AF909F908F90089541155105C8
:1034800051F3480159018A016C01CADF8815990579
:1034900011F7E114F104F9F28E0D9F1DA816B9067B
:1034A000D0F28091F3098823F1F0F894B5016450CB
:1034B00071099701AE014F5F5F4FC80104969FD617
:1034C0005C01892B71F489819A81F801938382834D
:1034D000C601880F991F880F991FB8018850964F11
:1034E00096DE7894BBCF87EFA82EBB24BA94B6CFD4
:1034F000AF92BF92CF92DF92EF92FF920F931F9302
:10350000CF93DF931F921F92CDB7DEB71A82198235
:10351000892B09F047C06115710509F443C04115B5
:10352000510509F43FC02115310509F43BC00115CF
:103530001105C1F18091F3098823B9F179016A017C
:103540005B01F894BE016F5F7F4F84EF99E06EDE00
:10355000789489819A81009759F1DC0112966D91D6
:103560007C91A801049664D68C01E981FA81D50189
:10357000ED93FC93828193810496F601918380837D
:103580004FDFD7018D939C93C8010F900F90DF916F
:10359000CF911F910F91FF90EF90DF90CF90BF9050
:1035A000AF9008950FEF1FEFEFCF07EF1FEFECCFB6
:1035B0000EEF1FEFE9CFCF93DF93EC01672B71F490
:1035C000B2D68C179D0760F0A5D62496C80FD91FD8
:1035D000A4D68C0F9D1FDF91CF910895A1D6F1CF76
:1035E00090E080E0F8CF0F931F93CF93DF9320916B
:1035F000F30921112BC08B01EC0188EF99E001DE6A
:103600008CEF99E0FEDD84EF99E0FBDD86D000973A
:10361000C1F489D670E060E0CEDF4CE858E062E0AB
:1036200070E07BD1009769F480918C0890918D08AF
:103630008CD6B801CE01C1D4009719F421E02093B3
:10364000F309DF91CF911F910F91089584EF9FEFC0
:10365000F8CF66C668C6CF93DF9368D6EC01892B96
:1036600011F40ADE36DECE01DF91CF910895CF93BB
:10367000DF935CD6EC01892B09F4FEDDCE01DF91EE
:10368000CF91089580918C0890918D080895CF93E3
:10369000DF938091F309D0E0C0E08823D1F05AD6BF
:1036A000EC01892BB1F4E8DD14DE80918C08909157
:1036B0008D08DDD1ECD2EC01892B59F488EF99E02B
:1036C000D5DD8CEF99E0D2DD84EF99E0CFDD10926B
:1036D000F309CE01DF91CF910895CF93DF93009747
:1036E000A1F4DF91CF910895EC011A821982A88389
:1036F000309711F0928381832F5F3F4FFC01860F3B
:10370000971F4217530781F7ECCF30E020E0F0E03D
:10371000E0E0AFEF6F5F7F4FF4CFCF92DF92EF9299
:10372000FF920F931F93CF93DF9300E51EE00C7F72
:1037300082E1E82E89E0F82E98E1C92E99E0D92E91
:10374000CFEADEE0D7014D915D917D01F6016191F7
:1037500071916F01198308835D834C835B834A8376
:103760007F836E839B012F5F3F4F249FC001259F66
:10377000900D349F900D112499878887C801ADDF83
:1037800088859985080F191F2A96F8E1EF16F9E048
:10379000FF06C1F6E2E0FAE08BE494E0DF019C0171
:1037A0001D9221503040E1F71092010A1092000A58
:1037B0001092CE0E1092CD0E1092D20E1092D10E0B
:1037C0001092D00E1092CF0E1092D40E1092D30EF3
:1037D0001092D60E1092D50E1092D80E1092D70ECF
:1037E0001092DC0E1092DB0E1092DA0E1092D90EAF
:1037F0001092DE0E1092DD0E1092E00E1092DF0E8F
:103800001092AC0E1092AB0E1092AE0E1092AD0E46
:1038100090E080E0DF91CF911F910F91FF90EF90AA
:10382000DF90CF900895009799F1F8948131910538
:1038300050F48091B10E9091B20E892B39F020E0B6
:1038400090E080E018C08132910550F48091BB0E69
:103850009091BC0E892B31F021E081E090E00BC00B
:103860008997A8F48091C50E9091C60E892B79F0A6
:1038700022E082E090E0EAE0E89FD001E99FB00D0D
:103880001124A155B14F8D919C91009721F478940A
:1038900090E080E00895E29FF0011124E155F14F9E
:1038A000DC0111964D915C9151834083428153819B
:1038B0004150510953834283FC012193CF017894F5
:1038C0000895009749F1DC018E91853041F4E09133
:1038D000AD0EF091AE0E3097F9F0CD011994853010
:1038E000D8F4282F30E0F8948FEF8C938AE0829FF1
:1038F000F001839FF00D1124E155F14F80819181FA
:1039000012969C938E931197B183A08382819381A9
:1039100001969383828378940895CF92DF92EF92F9
:10392000FF920F931F93CF93DF939C0185E09AE062
:103930008C7F4115510509F497C02115310509F413
:1039400093C06115710509F48FC07A01AB01B9010B
:103950006D5F7F4F6C7F9B012F5F3F4F249F8001E6
:10396000259F100D349F100D1124F8942091CD0E39
:103970003091CE0E232B59F42091D50E3091D60ED6
:103980002115310569F12017310708F056C0209143
:10399000D70E3091D80E232B91F42091D50E309173
:1039A000D60E820F931F2091DF0E3091E00E21156D
:1039B000310509F43FC02017310708F052C0789450
:1039C000CFEFDFEF86EF9FEFF701D183C083DF9169
:1039D000CF911F910F91FF90EF90DF90CF900895BE
:1039E000C3E0D0E0C090000AD090010A28E434E09F
:1039F0002C193D092017310710F32AE02C9FF00104
:103A00002D9FF00D1124E155F14F91838083558353
:103A100044835383428377836683118700875DDE07
:103A20000C0D1D1D1093010A0093000A789490E07C
:103A300080E0CACFC4E0D0E0D5CFC3E0D0E02AE038
:103A40002C9FF0012D9FF00D1124E155F14F918332
:103A500080835583448353834283778366833DDE2B
:103A6000E5CFC4E0D0E0EBCF8FEF9FEFB0CFFF9278
:103A70000F931F93CF93DF939C0123503109223082
:103A8000310508F070C0EC01F89484E09AE09C9F46
:103A9000D0019D9FB00D1124A954B14F082F10E003
:103AA000909FF001919FF00D1124E155F14F20817D
:103AB0003181C017D10714F1FF24F394232B41F572
:103AC0002AE0209FF001219FF00D1124E155F14FD4
:103AD0008091000A9091010A40855185841B950BC5
:103AE0009093010A8093000A2C9FF0012D9FF00D06
:103AF0001124E155F14F118610861CC0232B39F497
:103B00002D913C911197232BA9F48150C7CFF12C13
:103B10008AE08C9FF0018D9FF00D1124E155F14F4B
:103B20004085518570E060E0808191810E94CE2EB9
:103B3000F110C6CF8AE08C9FF0018D9FF00D11240B
:103B4000E155F14F11821082158214821382128284
:103B500017821682789490E080E0DF91CF911F91D8
:103B60000F91FF9008958FEF9FEFF7CF411551050B
:103B700049F1009739F16115710521F1F89420910F
:103B8000AB0E3091AC0E232BB9F42091AD0E3091D9
:103B9000AE0E232B89F49093AC0E8093AB0E7093F2
:103BA000AE0E6093AD0E789425E030E090E080E0BA
:103BB000FA0131832083089578942FEF3FEF86EF49
:103BC0009FEFF6CF8FEF9FEF0895059769F4F89474
:103BD0001092AC0E1092AB0E1092AE0E1092AD0E73
:103BE000789490E080E008958FEF9FEF089561153D
:103BF000710519F4F0E0E0E011C08530910581F421
:103C0000E091AB0EF091AC0E3097A1F3CB01019691
:103C10001995009779F3FC0185E08193CF01089510
:103C20009C01235031092230310520F72AE0289FDA
:103C3000D001299FB00D1124A155B14F2D913C9178
:103C40001197232BB9F216962D913C9117972617B1
:103C5000370780F2F89412962D913C911397211515
:103C6000310529F0ED91FC911197309711F478947A
:103C7000C1CF4181528111965C934E9321503109FD
:103C800013963C932E93129781937894C7CFEDE4CB
:103C9000FEE08EE5DF011D928A95E9F7E2E0FAE0A9
:103CA0008BE494E0DF019C011D9221503040E1F74C
:103CB0001092010A1092000AEFEAFEE082E3DF01AF
:103CC0001D928A95E9F7EBEAFEE084E0DF011D92A0
:103CD0008A95E9F790E080E00895CF93DF93C09153
:103CE0008E08D0918F08CF3FDC0759F4DED3909334
:103CF0008F0880938E0897FF09C0D0938F08C093D8
:103D00008E0884EF9FEFDF91CF91089590E080E0DF
:103D1000FACF8230910528F48093E10E90E080E0A4
:103D200008958FEF9FEF08954F925F926F927F9269
:103D3000AF92BF92CF92DF92EF92FF920F931F93B9
:103D4000CF93DF931F921F92CDB7DEB71A821982ED
:103D5000009709F479C06115710509F475C02091C7
:103D60008E0830918F0807EF1FEF2F3F3F4F09F468
:103D700045C06B015C01412C512C3201F12CE12C2E
:103D800010E000E09E012F5F3F4FA6014E195F0932
:103D9000B5016E0D7F1D80918E0890918F08E8D33C
:103DA000892B09F04BC089819A81009741F4E11475
:103DB000F10429F42091E10E222309F442C0E80E17
:103DC000F91EEC14FD04D0F480E8481684E8580687
:103DD0008EE16806710420F560E070E0CB010E947E
:103DE000F5282AE0420E511C611C711C0A3F4FEF5E
:103DF000140721F0043F8FEF1807A1F4C8010F90BA
:103E00000F90DF91CF911F910F91FF90EF90DF9076
:103E1000CF90BF90AF907F906F905F904F9008953C
:103E200001EF1FEF81E090E0013F2FEF120711F04B
:103E300090E080E0892B09F4A5CFE0CF04EF1FEFDD
:103E4000DDCF0AEF1FEFDACF0FEF1FEFD7CF4F9283
:103E50005F926F927F92AF92BF92CF92DF92EF927A
:103E6000FF920F931F93CF93DF931F921F92CDB7B3
:103E7000DEB71A821982009709F479C061157105BD
:103E800009F475C020918E0830918F0807EF1FEF5D
:103E90002F3F3F4F09F445C06B015C01412C512C71
:103EA0003201F12CE12C10E000E09E012F5F3F4F2A
:103EB000A6014E195F09B5016E0D7F1D80918E0818
:103EC00090918F0809D3892B09F04BC089819A8181
:103ED000009741F4E114F10429F42091E10E22232A
:103EE00009F442C0E80EF91EEC14FD04D0F480E899
:103EF000481686E9580688E96806710420F560E0EE
:103F000070E0CB010E94F5282AE0420E511C611C92
:103F1000711C0E3F4FEF140721F0043F8FEF18077D
:103F2000A1F4C8010F900F90DF91CF911F910F91D5
:103F3000FF90EF90DF90CF90BF90AF907F906F9009
:103F40005F904F90089502EF1FEF81E090E0023FF5
:103F50002FEF120711F090E080E0892B09F4A5CF34
:103F6000E0CF04EF1FEFDDCF0EEF1FEFDACF0FEF43
:103F70001FEFD7CF80918E0890918F088F3F9807C1
:103F800049F08BD2892B49F48FEF9FEF90938F08E4
:103F900080938E0890E080E0089584EF9FEF08956D
:103FA000FC01680F791F90E080E0E617F70709F43D
:103FB00008952191820F911DF8CF2091E20E2111D9
:103FC00013C08BDE009791F41092E80E1092E70E6A
:103FD0001092E60E1092E50E1092E40E1092E30E8F
:103FE00021E02093E20E089584EF9FEF0895AF92B1
:103FF000BF92CF92DF92EF92FF920F931F93CF93D6
:10400000DF93009709F460C04630510508F45CC0A6
:104010002091E20EC7EFDFEF222309F449C08C01A3
:10402000060F171FF801C080D180C114D10409F414
:104030004EC096012A5F3F4F4217530708F447C00E
:104040007C018091E70E9091E80E93838283B60104
:104050006C5F7F4F5801A60EB71EC801A1DFF501A6
:104060009183808364E070E0C8015EDEEC01892BFF
:10407000F9F481E090E04DDEB601C801049654DE0B
:10408000EC01892B91F462E070E0C5014DDEEC019A
:10409000892B59F4C70115DC8091E70E9091E80E49
:1040A00001969093E80E8093E70E90E080E031DE79
:1040B000CE01DF91CF911F910F91FF90EF90DF9094
:1040C000CF90BF90AF900895CFEFDFEFF1CFC9EF62
:1040D000DFEFEECF6F927F928F929F92AF92BF925F
:1040E000CF92DF92EF92FF920F931F93CF93DF93C4
:1040F00000D01F92CDB7DEB7009709F47AC0411502
:10410000510509F476C02091E20E07EF1FEF22233C
:1041100009F44DC03A017B015C0164E070E0CE011E
:10412000019695DE8C01892B09F041C009811A8125
:104130000115110509F45AC0480186E0880E911C4A
:10414000B701680D791D80919008909191084FDD1D
:104150006C01009709F450C0A70170E060E00E9474
:10416000CE2E89819A81AB81BC81EC0CFD1CF701BC
:1041700081939193A193B1937F0181E090E0C9DD98
:10418000B801C70164DE892B31F562E070E0C70138
:10419000800F911F5CDE8C01892BE9F490E080E0B8
:1041A000B8DDF501D182C082F30191828082C8011D
:1041B0000F900F900F900F90DF91CF911F910F9163
:1041C000FF90EF90DF90CF90BF90AF909F908F9037
:1041D0007F906F90089590E080E09BDDF501118263
:1041E0001082F30111821082C6016BDB09EF1FEF11
:1041F000DECF0FEF1FEFDBCF06EF1FEFD8CF00971B
:10420000A1F04115510589F02115310571F0F90131
:1042100036966E177F0748F0DC012D933C93DA0148
:10422000ED93FC9390E080E008958FEF9FEF089569
:10423000AF92BF92CF92DF92EF92FF920F931F93B4
:10424000CF93DF93009709F45FC04115510509F43E
:104250005BC06530710508F457C02091E20EC7EFCE
:10426000DFEF222391F1DC01CD90DC9011971296C3
:10427000ED91FC9196012A5F3F4FC9EFDFEF2617C2
:10428000370719F5C091E30ED091E40E209749F558
:1042900021E030E03093E40E2093E30E7A018C01AC
:1042A000F093E60EE093E50E5601B4E0AB0EB11CC0
:1042B000B50176DE0A0D1B1DF801208131818217C0
:1042C000930729F5D701CD92DC92CE01DF91CF91F2
:1042D0001F910F91FF90EF90DF90CF90BF90AF9024
:1042E00008952091E50E3091E60E2F5F3F4FCCEF01
:1042F000DFEFE217F30790F2CBEFDFEF2E173F0768
:1043000068F2D0E0C0E0CACFCFEFDFEFDECFC3EF7F
:10431000DFEFDBCF84E090E0089582E090E0089545
:104320008CEF9FEF089580E290E008951092E80EE0
:104330001092E70E1092E60E1092E50E1092E40E27
:104340001092E30E90E080E008959093910880939E
:10435000900808958091E20E882391F00BDE00977B
:1043600089F41092E80E1092E70E1092E60E109269
:10437000E50E1092E40E1092E30E1092E20E0895F4
:1043800090E080E00895009749F06115710531F0E3
:10439000FC0111821082FB01118210820895F3CF7B
:1043A00040E855E260E070E090E080E000C08130DD
:1043B000910579F01CF4892B39F00895823091052C
:1043C00061F0039771F0089526E083E99FE00C9473
:1043D0004E2B26E080E390E1FACF26E08DEC90E1D1
:1043E000F6CF26E08AE691E1F2CF089580E00895C5
:1043F000CF92DF92EF92FF920F931F93D1D66093EB
:10440000E90E7093EA0E8093EB0E9093EC0E009100
:10441000ED0E1091EE0E2091EF0E3091F00E6B012B
:104420007C01C01AD10AE20AF30A97018601003121
:1044300017422105310508F16093ED0E7093EE0EE1
:104440008093EF0E9093F00EA7D0AAD60091ED0EB8
:104450001091EE0E2091EF0E3091F00E601B710B5B
:10446000820B930B603177428105910570F081E0FA
:1044700090E09093F40E8093F30E81E01F910F91E2
:10448000FF90EF90DF90CF9008951092F40E10926D
:10449000F30EF3CF1092F10E089568EE73E080E012
:1044A00090E0A3D690E080E0089526E040E052EC52
:1044B00061E070E083E99FE00E944E2B83E99FE07A
:1044C0000E94842A892B29F083E99FE00E949E2A7A
:1044D000F5CF90E080E00895CF92DF92EF92FF92C7
:1044E0000F931F93CF93DF936B017A01E901198238
:1044F000188283E99FE00E94842A892B71F186014A
:10450000CC24C39482E0D82E8091F10E811111C089
:1045100083E99FE00E949E2A0297B1F7C092F10EB4
:10452000F801D1928F0188819981019699838883BE
:10453000EBCF888199818E159F0578F483E99FE000
:10454000FDD78F3F9807A9F3F80181938F018881E8
:104550009981019699838883ECCF90E080E0DF9188
:10456000CF911F910F91FF90EF90DF90CF90089522
:104570000F931F93CF93DF93EA01890183E99FE0B3
:104580000E94DE2DF801D183C08390E080E0DF91AE
:10459000CF911F910F910895CF92DF92EF92FF92EA
:1045A0008091F20E91E0980F9093F20E882369F0BB
:1045B00021E030E03093F40E2093F30E8093F20E5E
:1045C000FF90EF90DF90CF900895E0919808F091E0
:1045D0009908C28CD38CE48CF58C0E948003B701BF
:1045E000A60190E080E00E94FE028091F20E8150D0
:1045F000E5CFCF93DF9310925217109251172BD61D
:10460000CFDEC0919808D09199081982188264EF82
:1046100071E080E090E00E94750370E060E090E05F
:1046200080E00E9406020097A1F50E945105F894CF
:104630007894BE016E5D7F4F8A819B810E94090242
:10464000892B59F46FEF7FEFCB010E9494020E94F7
:104650006F03882311F081E08EA3F894C6DE0E94D8
:104660007203811104C00E946F0391E0811190E0F8
:10467000909351170E947A0CEC0178948091511715
:1046800081110AC00E94C6050E945703F89490E069
:1046900080E0DF91CF9108950E9455030E9472033C
:1046A00091E0811106C00E946F0391E0811101C069
:1046B00090E0909352179091521781E0911180E011
:1046C0008093511780915217811190DE219729F420
:1046D0000E947A0C892B09F4DDDE0E947A0CEC0131
:1046E00087DECCCF5058BB27AA270ED092C183D1EA
:1046F00030F088D120F031F49F3F11F41EF478C1DE
:104700000EF4E095E7FB45C1E92F94D180F3BA1789
:10471000620773078407950718F071F49EF5C3C10B
:104720000EF4E0950B2EBA2FA02D0B01B9019001CC
:104730000C01CA01A0011124FF27591B99F0593F10
:1047400050F4503E68F11A16F040A22F232F342F58
:104750004427585FF3CF469537952795A795F040A6
:104760005395C9F77EF41F16BA0B620B730B840BBB
:10477000BAF09150A1F0FF0FBB1F661F771F881F73
:10478000C2F70EC0BA0F621F731F841F48F48795CB
:1047900077956795B795F7959E3F08F0B3CF9395BA
:1047A000880F08F09927EE0F979587950895CDD03B
:1047B00008F481E0089546D188F09F5790F0B92F12
:1047C0009927B751A0F0D1F0660F771F881F991F66
:1047D0001AF0BA95C9F712C0B13081F064D1B1E0D6
:1047E000089561C1672F782F8827B85F39F0B93FE6
:1047F000CCF3869577956795B395D9F73EF4909568
:104800008095709561957F4F8F4F9F4F0895E894E5
:1048100009C097FB3EF490958095709561957F4F08
:104820008F4F9F4F9923A9F0F92F96E9BB279395B6
:10483000F695879577956795B795F111F8CFFAF4C6
:10484000BB0F11F460FF1BC06F5F7F4F8F4F9F4FF7
:1048500016C0882311F096E911C0772321F09EE855
:10486000872F762F05C0662371F096E8862F70E0BB
:1048700060E02AF09A95660F771F881FDAF7880F95
:104880009695879597F90895F7D080F09F3740F473
:1048900091110EF009C160E070E080E89FEB08958F
:1048A00026F41B16611D711D811D79C093C0A3D014
:1048B00018F011F0A7D038F49BC0F6C0E92FBAD099
:1048C000B0F35523C9F3E7FB621773078407950715
:1048D000A8F199F3E92FFF2788232AF03197660F73
:1048E000771F881FDAF7952F5527442332F0915010
:1048F0005040220F331F441FD2F7BB27E91BF50B93
:10490000621B730B840BB109C1F222F4620F731F97
:10491000841FB11D31972AF0660F771F881FBB1FB8
:10492000EFCF915050405AF041F0882332F0660F9B
:10493000771F881F91505040C1F793954BC08695C3
:10494000779567959F5FD9F7F8CF990F0008550FB6
:10495000AA0BE0E8FEEF16161706E807F907C0F005
:1049600012161306E407F50798F0621B730B840B0D
:10497000950B39F40A2661F0232B242B252B21F4E7
:1049800008950A2609F4A140A6958FEF811D811D87
:10499000089597F99F6780E870E060E008958823A4
:1049A00071F4772321F09850872B762F07C0662368
:1049B00011F499270DC09051862B70E060E02AF029
:1049C0009A95660F771F881FDAF7880F9695879557
:1049D00097F908959F3F31F0915020F4879577958E
:1049E0006795B795880F911D9695879597F90895C6
:1049F0009FEF80EC089500240A94161617061806F7
:104A00000906089500240A941216130614060506D2
:104A10000895092E0394000C11F4882352F0BB0F63
:104A200040F4BF2B11F460FF04C06F5F7F4F8F4FC6
:104A30009F4F089557FD9058440F551F59F05F3F01
:104A400071F04795880F97FB991F61F09F3F79F0B0
:104A500087950895121613061406551FF2CF469532
:104A6000F1DF08C0161617061806991FF1CF8695B4
:104A70007105610508940895E5DFA0F0BEE7B91758
:104A800088F4BB279F3860F41616B11D672F782F66
:104A90008827985FF7CF869577956795B11D939591
:104AA0009639C8F30895E894BB2766277727CB018A
:104AB00097F908954ADF08F48FEF08950BD0A9CF36
:104AC0009ADF28F09FDF18F0952309F062CF90CF8E
:104AD0001124EACFAFDFA0F3959FD1F3950F50E0FB
:104AE000551F629FF001729FBB27F00DB11D639FA0
:104AF000AA27F00DB11DAA1F649F6627B00DA11D46
:104B0000661F829F2227B00DA11D621F739FB00DEB
:104B1000A11D621F839FA00D611D221F749F33275B
:104B2000A00D611D231F849F600D211D822F762FF4
:104B30006A2F11249F5750408AF0E1F088234AF0F1
:104B4000EE0FFF1FBB1F661F771F881F915050403D
:104B5000A9F79E3F510570F01CCFA6CF5F3FECF345
:104B6000983EDCF3869577956795B795F795E79529
:104B70009F5FC1F7FE2B880F911D9695879597F93A
:104B80000895CF92DF92EF92FF920F931F93CF93EE
:104B9000DF936B017A01EC01CA50D14F28813CE0D0
:104BA000389F8001399F100D112427FF24C0FB017D
:104BB0001182108288818F5F888388819801280FF5
:104BC000311D87FD3A95C9012091F50EF601281790
:104BD000190629F024F088818C300CF43BC08081C8
:104BE0009181049680349C4908F473C0F601808159
:104BF0009181049670C088819801280F311D87FD2E
:104C00003A95C9012091F50E2817190699F294F2E8
:104C10008881A801480F511D87FD5A95FA01EE0FB2
:104C2000FF1FE40FF51FE650F14F808186FFC2CFD2
:104C30008881F801E80FF11D87FDFA95CF01EE0F8D
:104C4000FF1FE80FF91FE650F14F808160E08F737E
:104C500006D4B0CF808191812881A801420F511DD7
:104C600027FD5A959A01FA01EE0FFF1FE20FF31F7D
:104C7000E650F14F21813281820F931FF70191831A
:104C8000808388819801280F311D87FD3A95F901AD
:104C9000EE0FFF1FE20FF31FE650F14F808186FFFA
:104CA0001FC08881080F111D87FD1A95F801EE0FAE
:104CB000FF1FE00FF11FE650F14F808161E08F731D
:104CC000DF91CF911F910F91FF90EF90DF90CF90E8
:104CD000C6C380E49CE9F701918380838FEF8883CA
:104CE000DF91CF911F910F91FF90EF90DF90CF90C8
:104CF00008951F920F920FB60F9211240BB60F92C8
:104D00002F933F934F935F936F937F938F939F93D3
:104D1000AF93BF93EF93FF9348E850E064E870E0EF
:104D200081E090E02EDFFF91EF91BF91AF919F91D5
:104D30008F917F916F915F914F913F912F910F9044
:104D40000BBE0F900FBE0F901F9018951F920F92E1
:104D50000FB60F9211240BB60F922F933F934F93E0
:104D60005F936F937F938F939F93AF93BF93EF93D3
:104D7000FF9348E950E064E970E082E090E001DFF1
:104D8000FF91EF91BF91AF919F918F917F916F9123
:104D90005F914F913F912F910F900BBE0F900FBEDF
:104DA0000F901F9018951F920F920FB60F9211241B
:104DB0000BB60F922F933F934F935F936F937F9315
:104DC0008F939F93AF93BF93EF93FF9348EA50E085
:104DD00064EA70E083E090E0D4DEFF91EF91BF9150
:104DE000AF919F918F917F916F915F914F913F9183
:104DF0002F910F900BBE0F900FBE0F901F90189524
:104E00001F920F920FB60F9211240BB60F922F9391
:104E10003F934F935F936F937F938F939F93AF9342
:104E2000BF93EF93FF9348E251E064E271E090E0BA
:104E300080E0A7DEFF91EF91BF91AF919F918F919D
:104E40007F916F915F914F913F912F910F900BBE8A
:104E50000F900FBE0F901F901895FC019091F50ECA
:104E6000903398F481E0890F8093F50E9083892F19
:104E700090E0FC01EE0FFF1FE80FF91FE650F14F25
:104E800088EB9BE09283818308958FEF8083089560
:104E9000DF92EF92FF920F931F93CF93DF93EC017A
:104EA000D62E7A0189018881803308F065C061E0DF
:104EB0008D2D99D28881282F30E0F901EE0FFF1F48
:104EC000E20FF31FE650F14F9D2D9F736081607CD0
:104ED000692B608320E232E02E193F0937FF02C0C0
:104EE0002D5F3F4F3595279535952795298320E6EA
:104EF00039E0201B310B37FF02C02D5F3F4F359546
:104F00002795359527952A832CE0622FD3D6829F4B
:104F1000B001112430E020E0AB01420F531FFA0131
:104F2000EE0FFF1FE40FF51FE650F14F908196FD45
:104F300016C02F5F3F4F2C30310571F7813029F5B6
:104F40001092800082E08093810010928500109280
:104F50008400B19A80916F00826080936F00E88135
:104F60008E2F90E0FC01EE0FFF1FE80FF91FE650B7
:104F7000F14F8081806480838881DF91CF911F9180
:104F80000F91FF90EF90DF900895823061F41092BE
:104F9000900080939100109295001092940088BB2D
:104FA00080937100DCCF833069F41092A00082E01E
:104FB0008093A1001092A5001092A40089BB809359
:104FC0007200CDCF8111CBCF1092200182E080936F
:104FD000210110922501109224018ABB8093730055
:104FE000BECF20E639E040E252E052CFDC01EC9146
:104FF000E03390F511968C91119728E830E0281B4A
:10500000310987FD3395220F331F220F331F62179B
:10501000730784F012968C9128E532E0281B310941
:1050200087FD3395220F331F220F331F621773073B
:105030000CF49B0122503109220F331F4FB7F89413
:105040008E2F90E0FC01EE0FFF1FE80FF91FE650D6
:10505000F14F328321834FBF0895AF92BF92CF9219
:10506000DF92EF92FF920F931F93CF93DF93EC01A8
:10507000603282E078070CF03DC0653B710514F0AA
:1050800064EB70E0898148E8A42EB12CA81AB1081D
:1050900087FDB394AA0CBB1CAA0CBB1C0B2C000CE8
:1050A000CC08DD0877FF02C070E060E0072E000C3E
:1050B000880B990B2A8108E512E0021B110927FDD4
:1050C0001395000F111F000F111F012E000C220B52
:1050D000330B3F932F931F930F9314EBE12EF12C7F
:1050E00000E010E020E030E0A90195D50F900F908E
:1050F0000F900F90CE01DF91CF911F910F91FF90F4
:10510000EF90DF90CF90BF90AF9070CF1F920F9233
:105110000FB60F9211242F933F938F939F93AF93CA
:10512000BF9380918B0F90918C0FA0918D0FB091B8
:105130008E0F30918A0F23E0230F2D3758F50196FB
:10514000A11DB11D20938A0F80938B0F90938C0F1C
:10515000A0938D0FB0938E0F80918F0F9091900F31
:10516000A091910FB091920F0196A11DB11D809356
:105170008F0F9093900FA093910FB093920FBF91C8
:10518000AF919F918F913F912F910F900FBE0F90F4
:105190001F90189526E8230F0296A11DB11DD2CFAE
:1051A0003FB7F89480918F0F9091900FA091910F3D
:1051B000B091920F26B5A89B05C02F3F19F001961C
:1051C000A11DB11D3FBFBA2FA92F982F8827BC0161
:1051D000CD01620F711D811D911D42E0660F771F89
:1051E000881F991F4A95D1F708958F929F92AF9289
:1051F000BF92CF92DF92EF92FF926B017C01D0DFE2
:105200004B015C01C114D104E104F104D9F042D591
:10521000C7DF681979098A099B09683E73408105CF
:10522000910580F321E0C21AD108E108F10888EE67
:10523000880E83E0981EA11CB11CC114D104E104A6
:10524000F10431F7FF90EF90DF90CF90BF90AF90D7
:105250009F908F900895789484B5826084BD84B5C2
:10526000816084BD85B5826085BD85B5816085BD61
:10527000EEE6F0E0808181608083E1E8F0E010827A
:10528000808182608083808181608083E0E8F0E0BB
:10529000808181608083E1EBF0E0808184608083A5
:1052A000E0EBF0E0808181608083E1E9F0E08081E3
:1052B00082608083808181608083E0E9F0E080818A
:1052C00081608083E1EAF0E0808182608083808178
:1052D00081608083E0EAF0E0808181608083E1E2A8
:1052E000F1E0808182608083808181608083E0E260
:1052F000F1E0808181608083EAE7F0E08081846072
:1053000080838081826080838081816080838081CE
:10531000806880831092C10008958150823108F026
:1053200059C0E82FF0E08827E856F64D8F4F0CC59E
:10533000B829BC29AA29B029B429EA29BF29C52935
:10534000C929CF29D329D729DD29E129EA29E52946
:10535000EB29EF29809180008F778093800008955A
:10536000809180008F7DF9CF80918000877FF5CF7D
:1053700084B58F7784BD089584B58F7DFBCF8091F0
:10538000B0008F778093B00008958091B0008F7D3A
:10539000F9CF809190008F7780939000089580914D
:1053A00090008F7DF9CF80919000877FF5CF80911D
:1053B000A0008F778093A00008958091A0008F7D3A
:1053C000F9CF8091A000877FF5CF809120018F7762
:1053D000809320010895809120018F7DF9CF8091E5
:1053E0002001877FF5CFCF93DF9390E0FC01E65D4E
:1053F000FE4F249180599E4FFC0184918823C9F06F
:1054000090E0880F991FFC01E651FE4FA591B491E1
:10541000FC01E053FE4FC591D49161110DC09FB7BF
:10542000F8948C91209582238C938881282328835B
:105430009FBFDF91CF910895623051F49FB7F894E8
:105440003C91822F809583238C93E8812E2BEFCF84
:105450008FB7F894EC912E2B2C938FBFEACF1F932C
:10546000CF93DF93282F30E0F901EC51FF4F849167
:10547000F901E65DFE4FD491F901E059FE4FC49168
:10548000CC23A1F0162F811148DFEC2FF0E0EE0FB6
:10549000FF1FE053FE4FA591B4918FB7F894EC91A4
:1054A000111108C0D095DE23DC938FBFDF91CF911F
:1054B0001F910895DE2BF8CF0F931F9390E0FC010E
:1054C000E65DFE4F7491FC01E059FE4FE4916111DD
:1054D000672FF0E0EE0FFF1FEA54FE4F8591949185
:1054E00089019A013F70462F672F0E94390161158B
:1054F00071058105910529F06F5F7F4F8F4F9F4F99
:105500009F701F910F910895FC01918D228D892F1D
:1055100090E0805C9F4F821B91098F7399270895BB
:10552000FC01918D828D981731F0828DE80FF11D6D
:10553000858D90E008958FEF9FEF0895FC01918D88
:10554000828D981761F0A28DAE0FBF2FB11D5D96B1
:105550008C91928D9F5F9F73928F90E008958FEF53
:105560009FEF0895FC01538D448D252F30E0842F4B
:1055700090E0821B930B541710F0CF96089501977B
:105580000895FC01A48DA80FB92FB11DA35ABF4FD8
:105590002C91848D90E001968F739927848FA68932
:1055A000B7892C93A089B1898C91837080648C9386
:1055B000938D848D981306C00288F389E02D808135
:1055C0008F7D80830895CF93DF93EC01888D8823AE
:1055D000B1F0AA89BB89E889F9898C9185FD03C05E
:1055E000808186FD0CC00FB607FCF7CF8C9185FF3C
:1055F000F2CF808185FFEDCFCE01C3DFEACFDF910F
:10560000CF910895EF92FF920F931F93CF93DF9363
:10561000EC0181E0888F9B8D8C8D98131AC0E889EE
:10562000F989808185FF15C09FB7F894EE89FF89BD
:105630006083E889F98980818370806480839FBF5B
:1056400081E090E0DF91CF911F910F91FF90EF905B
:105650000895F62E0B8D10E00F5F1F4F0F7311276B
:10566000E02E8C8D8E110BC00FB607FCFACFE889A7
:10567000F989808185FFF5CFCE0183DFF2CFEB8DF5
:10568000EC0FFD2FF11DE35AFF4FF0829FB7F89406
:105690000B8FEA89FB8980818062D0CFCF92DF9225
:1056A000EF92FF921F93CF93DF93EC016A017B018E
:1056B000122FE889F98982E08083C11481EED8062F
:1056C000E104F10499F060E079E08DE390E0A70156
:1056D0009601FCD22150310941095109569547954F
:1056E00037952795211580E1380790F0E889F989E9
:1056F000108260E874E88EE190E0A7019601E6D29E
:1057000021503109410951095695479537952795FB
:10571000EC85FD853083EE85FF852083188EEC892E
:10572000FD891083EA89FB89808180618083EA8911
:10573000FB89808188608083EA89FB898081806819
:105740008083EA89FB8980818F7D8083DF91CF917F
:105750001F91FF90EF90DF90CF9008951F920F92CE
:105760000FB60F9211240BB60F922F938F939F9326
:10577000EF93FF93E091A30FF091A40F8081E0914C
:10578000A90FF091AA0F82FD1DC090818091AC0FEE
:105790008F5F8F732091AD0F821741F0E091AC0FB6
:1057A000F0E0ED56F04F958F8093AC0FFF91EF91A5
:1057B0009F918F912F910F900BBE0F900FBE0F9066
:1057C0001F9018958081F2CF1F920F920FB60F9203
:1057D00011240BB60F922F933F934F935F936F93C8
:1057E0007F938F939F93AF93BF93EF93FF9383E93F
:1057F0009FE0C7DEFF91EF91BF91AF919F918F9195
:105800007F916F915F914F913F912F910F900BBEC0
:105810000F900FBE0F901F901895E3E9FFE01382E1
:10582000128288EE93E0A0E0B0E084839583A683A3
:10583000B78382E299E09183808385EC90E095873D
:10584000848784EC90E09787868780EC90E0918B4A
:10585000808B81EC90E0938B828B82EC90E0958B37
:10586000848B86EC90E0978B868B118E128E138E34
:10587000148E08951F920F920FB60F9211240BB63B
:105880000F922F938F939F93EF93FF93E09140108C
:10589000F09141108081E0914610F091471082FD17
:1058A0001DC09081809149108F5F8F7320914A10A5
:1058B000821741F0E0914910F0E0E05DFF4E958FD6
:1058C00080934910FF91EF919F918F912F910F90AD
:1058D0000BBE0F900FBE0F901F9018958081F2CFD6
:1058E0001F920F920FB60F9211240BB60F922F93A7
:1058F0003F934F935F936F937F938F939F93AF9358
:10590000BF93EF93FF9380E390E13BDEFF91EF9134
:10591000BF91AF919F918F917F916F915F914F91C7
:105920003F912F910F900BBE0F900FBE0F901F90C5
:105930001895E0E3F0E11382128288EE93E0A0E094
:10594000B0E084839583A683B78382E299E0918354
:1059500080838DEC90E0958784878CEC90E097872E
:10596000868788EC90E0918B808B89EC90E0938B1C
:10597000828B8AEC90E0958B848B8EEC90E0978BF9
:10598000868B118E128E138E148E08951F920F9295
:105990000FB60F9211240BB60F922F938F939F93F4
:1059A000EF93FF93E091DD10F091DE108081E091A4
:1059B000E310F091E41082FD1DC090818091E6100B
:1059C0008F5F8F732091E710821741F0E091E6100E
:1059D000F0E0E353FF4E958F8093E610FF91EF9137
:1059E0009F918F912F910F900BBE0F900FBE0F9034
:1059F0001F9018958081F2CF1F920F920FB60F92D1
:105A000011240BB60F922F933F934F935F936F9395
:105A10007F938F939F93AF93BF93EF93FF938DECFF
:105A200090E1AFDDFF91EF91BF91AF919F918F9189
:105A30007F916F915F914F913F912F910F900BBE8E
:105A40000F900FBE0F901F901895EDECF0E11382B0
:105A5000128288EE93E0A0E0B0E084839583A68371
:105A6000B78382E299E09183808385ED90E095870A
:105A7000848784ED90E09787868780ED90E0918B16
:105A8000808B81ED90E0938B828B82ED90E0958B03
:105A9000848B86ED90E0978B868B118E128E138E01
:105AA000148E08951F920F920FB60F9211240BB609
:105AB0000F922F938F939F93EF93FF93E0917A111F
:105AC000F0917B118081E0918011F091811182FD34
:105AD0001DC09081809183118F5F8F7320918411FD
